:020000040800F2
:1000000000100020B50500080106000801060008E0
:1000100000000000000000000000000000000000E0
:1000200000000000000000000000000001060008C1
:1000300000000000000000000106000801060008A2
:100040000106000801060008010600080106000874
:100050000106000801060008010600080106000864
:100060000106000801060008010600080106000854
:100070000106000801060008010600080106000844
:100080000106000801060008000000000106000843
:100090000106000801060008010600080106000824
:1000A0000106000801060008010600080106000814
:1000B0000106000800000000010600080000000022
:1000C0005FF808F180B588B000AF78600023FB616D
:1000D0000023BB6100237B6100233B610023FB60A5
:1000E000654B5A680C231340FB61FB69042B07D056
:1000F000082B09D0002B30D17B68604A1A6030E0B1
:100100007B685E4A1A602CE05B4B5A68F0239B03C5
:100110001340BB61584B5A6880235B0213407B61DC
:10012000BB699B0C0233BB617B69002B05D1BB69AA
:10013000534A5A437B681A6013E04F4BDA6A0F2325
:10014000134001333B614D48396901F09FF9031CAD
:10015000BA695A437B681A6003E07B68474A1A60B1
:10016000C046454B5A68F0231340FB61FB691B09ED
:10017000FB61444AFB69D3181B78DBB2FB607B68E8
:100180001A68FB68DA407B685A603B4B5A68E02388
:10019000DB001340FB61FB691B0AFB61394AFB6909
:1001A000D3181B78DBB2FB607B685A68FB68DA40C7
:1001B0007B689A60304B1A6B80235B00134003D13D
:1001C0007B68314ADA6010E02B4B5A688023DB01F0
:1001D000134005D17B689B685A087B68DA6004E0AD
:1001E0007B689B689A087B68DA60234B1A6B402314
:1001F000134003D17B68254A1A6103E07B688022A3
:1002000012021A611C4B1A6B1023134003D17B6836
:100210001A4A5A6103E07B681A687B685A61164B78
:100220001A6B0323134004D17B689A687B689A6138
:100230001EE0114B1A6B03231340012B04D17B6882
:100240001A687B689A6113E00B4B1A6B0323134007
:10025000022B04D17B68802212029A6108E0064BCF
:100260001A6B03231340032B02D17B68034A9A6164
:10027000BD4608B080BDC0460010024000127A00A2
:1002800000093D0000000020809FD5001280000082
:1002900080B582B000AF78600A1CFB1C1A70FB1C92
:1002A0001B78002B06D0084B074A51697A680A432D
:1002B0005A6106E0044B044A52697968C9430A400E
:1002C0005A61BD4602B080BD0010024080B582B0C8
:1002D00000AF78600A1CFB1C1A70FB1C1B78002BFB
:1002E00006D0084B074A91697A680A439A6106E08A
:1002F000044B044A92697968C9430A409A61BD4631
:1003000002B080BD0010024080B582B000AF8023F3
:100310009B02181C0121FFF7BBFF3B1C08221A603F
:100320003B1C01221A713B1C03225A713B1C002208
:100330009A713B1C0122DA719023DA053B1C101CD8
:10034000191C00F0ADFEBD4602B080BD80B500AF07
:100350009023DB05181C082100F03EFFBD4680BD40
:1003600080B588B000AF3B1CE12212031A603B1C31
:1003700000225A603B1C802292019A603B1C0022A2
:10038000DA603B1C00225A613B1C0C221A6180235C
:100390009B02181C0121FFF77BFF8023DB01181C47
:1003A0000121FFF793FF9023DB05181C092101228F
:1003B00000F020FF9023DB05181C0A21012200F029
:1003C00019FF3B1C1833C022D2001A603B1C1833A3
:1003D00002221A713B1C183303225A713B1C18333A
:1003E00000229A713B1C18330122DA719023DA053E
:1003F0003B1C1833101C191C00F052FE064A3B1C13
:10040000101C191C00F044FF034B181C012100F0C4
:10041000EFFFBD4608B080BD0038014080B588B010
:1004200000AF80239B02181C0121FFF731FF8023BE
:100430005B01181C0121FFF749FF3B1D04221A60D4
:100440003B1D01221A713B1D03225A713B1D0022E4
:100450009A713B1D0122DA719023DA053B1D101CB5
:10046000191C00F01DFE3B1DE0221A603B1D0222FC
:100470001A713B1D03225A713B1D00229A713B1DCC
:100480000122DA719023DA053B1D101C191C00F0C3
:1004900007FE9023DB05181C2021002200F0AAFE95
:1004A0009023DB05181C4021002200F0A3FE9023BE
:1004B000DB05181C8021002200F09CFE3B1C0C3345
:1004C00000221A803B1C0C33822252005A803B1CB3
:1004D0000C33E022D2009A803B1C0C330022DA80DD
:1004E0003B1C0C3300221A813B1C0C3380229200EF
:1004F0005A813B1C0C3338229A813B1C0C3300225E
:10050000DA813B1C0C3307221A82124A3B1C0C3343
:10051000101C191C00F0E0FB0E4A80235B01101C2C
:10052000191C00F07BFC0B4B181C002100F0BCFCDC
:10053000084B181C012100F051FCC046054B181C4B
:10054000022100F0D3FC031C002BF7D0BD4608B0FD
:1005500080BDC0460030014080B500AFFFF700FF0E
:10056000FFF75CFFFFF7D0FEFFF7F0FE9023DB05FF
:100570000C221A850D4B181CAA2100F06DFCC046F8
:100580000A4B181C012100F0B1FC031C002BF7D012
:10059000064B181C00F076FC9023DB050C229A61B8
:1005A000034B181C00F03AFBE0E7C0460030014066
:1005B0002C1500080C488546002103E00B4B5B58C6
:1005C000435004310A480B4B42189A42F6D30A4A68
:1005D00002E0002313600432084B9A42F9D300F082
:1005E000A9FCFFF7B9FFFEE700100020DC150008AA
:1005F00000000020400400204004002040040020AF
:10060000FEE7000080B582B000AF021CFB1D1A702F
:10061000FB1D1B789BB2084A101C191C00F006FF3A
:10062000C046054B181C802100F012FF031C002B54
:10063000F7D0BD4602B080BD0038014080B582B021
:1006400000AF78600A1CFB1C1A707B68FA1C1278D9
:100650001A700123181CBD4602B080BD80B584B05D
:1006600000AF786039600023FB600CE03B681A78CB
:100670007B681A707B6801337B603B6801333B60A9
:10068000FB680133FB603B681B78002BEED1FB68F5
:10069000181CBD4604B080BD80B586B000AFF860C0
:1006A0007A603B603B1C0B330A1C1A7000237B6191
:1006B0007B68013B7B603B68092B24D93B68181C95
:1006C0000A2100F0E3FE031CF8683A1C0B32117893
:1006D0007A68FFF7E1FF031C7B617B69FA68D31836
:1006E000FB6013E0FA683B1C0B331B78101C191CD1
:1006F000FFF7A4FFFB680133FB607B6901337B617B
:100700007B68013B7B607B68002BEBDC3B68181C43
:100710000A2100F0FFFE0B1CDBB23033DBB2FA68BB
:10072000101C191CFFF78AFF031C7A69D3187B6120
:100730007B69181CBD4606B080BDC04680B586B03A
:1007400000AFF8607A603B603B1C0B330A1C1A70E8
:1007500000237B613B68002B03DA3B685B423B6113
:1007600001E03B683B617B68013B7B603B69092B97
:1007700027D93B68002B10DA3B69181C0A2100F0CE
:1007800085FE031C5B42F8683A1C0B3211787A68CC
:10079000FFF7D4FF031C7B610EE03B69181C0A21A4
:1007A00000F074FE031CF8683A1C0B3211787A686A
:1007B000FFF7C4FF031C7B617B69FA68D318FB60F9
:1007C00029E03B68002B14DA7B68013B7B6010E07A
:1007D000FA683B1C0B331B78101C191CFFF72EFF0B
:1007E000FB680133FB607B6901337B617B68013B04
:1007F0007B607B68002BEBDC3B68002B0BDAFB6833
:10080000181C2D21FFF71AFF031C7A69D3187B618E
:10081000FB680133FB603B69181C0A2100F07AFE7B
:100820000B1CDBB23033DBB2FA68101C191CFFF76B
:1008300005FF031C7A69D3187B617B69181CBD46D0
:1008400006B080BD90B589B002AFF8607A601A1C1E
:100850003B1C0B3319703B1C0A331A7000237B615D
:100860007B68013B7B60BB6A1B0926D0BB6A1C0905
:10087000F8683B1C0B3319787A683B1C0A331B78E9
:100880000094FFF7DFFF031C7A69D3187B617B6953
:10089000FA68D318FB6013E0FA683B1C0B331B7833
:1008A000101C191CFFF7CAFEFB680133FB607B6953
:1008B00001337B617B68013B7B607B68002BEBDC59
:1008C000BA6A0F231340092B0CD8BB6ADAB20F2384
:1008D0001340DBB23033DBB2FA68101C191CFFF78F
:1008E000ADFE1DE03B1C0A331B78002B0CD0BB6A0D
:1008F000DAB20F231340DBB23733DBB2FA68101CD5
:10090000191CFFF79BFE0BE0BB6ADAB20F23134002
:10091000DBB25733DBB2FA68101C191CFFF78EFEEE
:100920007B6901337B617B69181CBD4607B090BDB4
:1009300080B58AB002AFF860B9607A603B6000238E
:10094000BB6100237B61FB68002B00D1E6E0FB6804
:1009500000221A70E2E07B681B78252B0DD07B68A3
:100960001A78FB681A70FB680133FB607B680133FF
:100970007B607B6901337B61D1E07B6801331B784D
:10098000252B0CD1FB6825221A70FB680133FB6014
:100990007B6802337B607B6901337B61BFE03B1C7A
:1009A0001F3320221A703B1C1E3300221A707B68F2
:1009B00001337B607B681B78302B1BD13B1C1F33C2
:1009C00030221A707B6801337B6013E03B1C1E33BE
:1009D0001B781A1C9200D3185B00DAB27B681B7874
:1009E000D318DAB23B1C1E33303A1A707B680133DD
:1009F0007B6000E0C0467B681B782F2B03D97B68A7
:100A00001B78392BE2D93B1C1E331A787B69D3182B
:100A10001A1CBB689A4207D9BB68D9B27B69DAB2A3
:100A20003B1C1E338A1A1A707B681B78583B202B9C
:100A300065D89A00494BD3181B689F463B1C1E3350
:100A40001A783B68191D39601B68F868391C1F311A
:100A50000978FFF773FE031CBB6153E03B1C1E3398
:100A60001A783B68191D39601B68F868391C1F31FA
:100A70000978FFF711FE031CBB6143E03B1C1E33EA
:100A80001A783B68191D39601868F9683B1C1F33D8
:100A90001B780090081C191C0023FFF7D3FE031CD1
:100AA000BB612FE03B1C1E331A783B68191D39606F
:100AB0001868F9683B1C1F331B780090081C191C30
:100AC0000123FFF7BFFE031CBB611BE03B681A1D3F
:100AD0003A601B68FA68101C191CFFF7BFFD031C65
:100AE000BB610FE03B681A1D3A601B68DBB2FA6815
:100AF000101C191CFFF7A2FD031CBB6102E00123BF
:100B00005B4227E07B6801337B60BB69FA68D318DE
:100B1000FB607A69BB69D3187B6100E0C0467B68E3
:100B20001B78002B04D07A69BB689A4200D212E786
:100B30007A69BB689A4203D2FB6800221A7008E007
:100B4000FB68013BFB60FB6800221A707B69013B7C
:100B50007B617B69181CBD4608B080BD3415000858
:100B600080B584B000AFF860B9607A60F968BA689F
:100B70007B68081C6421FFF7DBFE031C181CBD46C4
:100B800004B080BD90B5A7B000AFF860B9607A60DE
:100B90003B1C1033144A13CA13C313CA13C313CA1A
:100BA00013C3391C3431BA687B68081C111C1A1C29
:100BB000FFF7D6FF031C632B09DD0C4B1B68DB68BA
:100BC0003A1C1032101C191C00F060F8FEE73A1CA9
:100BD0003432FB68101C191C00F058F8031C181C58
:100BE000BD4627B090BDC046B815000838040020A7
:100BF00080B582B000AF78603960074B1B68996898
:100C00007A683B68081C111C1A1CFFF7BBFF031C09
:100C1000181CBD4602B080BD380400200FB480B55A
:100C200082B000AF3B1C14333B603A693B68101C38
:100C3000191CFFF7DDFF031C7B607B68181CBD4699
:100C400002B080BC08BC04B01847C04680B582B072
:100C500000AF786039600C4B1B689A683B689A4219
:100C600005D0094B1B68DA683B689A4206D17B685D
:100C7000DBB2181CFFF7C6FC7B6801E001235B4276
:100C8000181CBD4602B080BD3804002080B584B079
:100C900000AF786039600023FB6013E07B681B784D
:100CA0001A1C3B68101C191CFFF7D0FF031C0133F2
:100CB00002D101235B420AE0FB680133FB607B68E1
:100CC00001337B607B681B78002BE7D1FB68181C25
:100CD000BD4604B080BDC04680B584B000AF78602A
:100CE00039603B1C0E3300221A803B1C0E337A689D
:100CF00012881A803B1C0E333A1C0E321188C12216
:100D000092010A401A803B681A883B68DB891343CA
:100D10009AB23B68DB8813439AB23B681B89134342
:100D20009AB23B685B8913439AB23B689B89134331
:100D300099B23B1C0E333A1C0E3212880A431A80B9
:100D40007B683A1C0E3212881A803B1C0E337A687C
:100D500092881A803B1C0E333A1C0E3211881D4AB1
:100D60000A401A803B6899883B1C0E333A1C0E32AD
:100D700012880A431A807B683A1C0E3212889A80C5
:100D80003B681A8A7B681A823B1C0E337A68128889
:100D90001A803B1C0E333A1C0E32128804218A43FF
:100DA0001A803B6859883B1C0E333A1C0E3212885D
:100DB0000A431A807B683A1C0E3212881A807B68BC
:100DC0009B8B9AB2044B13409AB27B689A83BD46C0
:100DD00004B080BDFFF0FFFFFFF7FFFF80B582B0DA
:100DE00000AF78600A1CFB1C1A70FB1C1B78002BE0
:100DF00008D07B681B889BB2402213439AB27B6861
:100E00001A8007E07B681B889BB2402293439AB20A
:100E10007B681A80BD4602B080BDC04680B582B0F6
:100E200000AF78600A1CBB1C1A807B689B889AB252
:100E3000084B13409AB27B689A807B689B889AB271
:100E4000BB1C1B8813439AB27B689A80BD4602B0D4
:100E500080BDC046FFEFFFFF80B584B000AF786073
:100E60000A1CFB1C1A700023FB607B68FB60FB689C
:100E70000C33FB60FB68FA1C12781A70BD4604B094
:100E800080BDC04680B584B000AF78600023FB60B1
:100E90007B68FB60FB680C33FB60FB681B78DBB294
:100EA000181CBD4604B080BD80B582B000AF78602C
:100EB0000A1CFB1C1A70FB1C1B78002B09D07B68DA
:100EC0001B889BB28022920113439AB27B681A80DE
:100ED00007E07B681B889AB2034B13409AB27B6889
:100EE0001A80BD4602B080BDFFDFFFFF80B584B031
:100EF00000AF78600A1CBB1C1A803B1C0F33002219
:100F00001A707B681B899BB2BA1C128813409BB273
:100F1000002B04D03B1C0F3301221A7003E03B1C52
:100F20000F3300221A703B1C0F331B78181CBD4670
:100F300004B080BD80B500AF1B4B1B4A1268012175
:100F40000A431A60184B184A5168184A0A405A60F6
:100F5000154B154A1168164A0A401A60124B124A7C
:100F60001168144A0A401A600F4B0F4A5168124A1E
:100F70000A405A600C4B0C4AD26A0F218A43DA624B
:100F8000094B094A116B0D4A0A401A63064B064A7F
:100F9000526B01218A435A63034B00229A6000F08E
:100FA0000FF8BD4680BDC046001002400CB8FF08D7
:100FB000FFFFF6FEFFFFFBFFFFFFC0FFACFEFFFFE2
:100FC00080B582B000AF00237B6000233B60314BD3
:100FD000304A1268802149020A431A602D4B1A6870
:100FE00080239B0213403B607B6801337B603B683E
:100FF000002B04D17A68A023DB019A42EED1254B65
:101000001A6880239B02134002D001233B6001E059
:1010100000233B603B68012B38D11F4B11221A6023
:101020001C4B1C4A52685A601A4B1A4A52685A6042
:10103000184B184A5168194A0A405A60154B154A0C
:101040005268882149030A435A60124B114A1268B8
:10105000802149040A431A60C0460E4B1A68802357
:101060009B041340F9D00B4B0A4A526803218A4370
:101070005A60084B074A526802210A435A60C04628
:10108000044B5A680C231340082BF9D1BD4602B01B
:1010900080BDC0460010024000200240FFFFC0FF9C
:1010A00080B586B000AF7860396000237B61002393
:1010B0003B610023FB6000237B6185E07B690122AB
:1010C000101C9840031C3B613B681B683A69134045
:1010D000FB60FA683B699A4273D13B681B79012B2C
:1010E00003D03B681B79022B38D17B689B687A69F7
:1010F00052000321081C9040021CD2431A407B6816
:101100009A607B689A683B685B79191C7B695B0015
:10111000081C9840031C1A437B689A607B689B8874
:101120009BB27A6992B20121081C9040021C92B2D3
:10113000D24392B213409AB27B689A807B689B88B4
:101140009AB23B689B79191C7B699BB2081C98403A
:10115000031C9BB213439AB27B689A807B681B681E
:101160007A6952000321081C9040021CD2431A40A5
:101170007B681A607B681A683B681B79191C7B695D
:101180005B00081C9840031C1A437B681A607B684C
:10119000DB687A6992B252000321081C9040021C5D
:1011A000D2431A407B68DA607B68DA683B68DB7997
:1011B000191C7B695B00081C9840031C1A437B6860
:1011C000DA607B6901337B617B690F2B00D875E79F
:1011D000BD4606B080BDC04680B582B000AF786025
:1011E0000A1CBB1C1A80BB1C1A887B689A61BD460E
:1011F00002B080BD90B585B000AF7860BB1C19808F
:101200007B1C1A700023FB600023BB607B1C1A78D8
:10121000BB1C198807230B409B00111C99400B1C19
:10122000FB60BB1C1B88DB089BB21A1CBB1C1B8809
:10123000DB089BB2191C7B6808318900CB58B91CAC
:1012400008880721014089000F20041C8C40211CC4
:10125000C94319407B6808329200D150BB1C1B88DF
:10126000DB089BB21A1C7B6808329200D258FB68DC
:101270001343BB60BB1C1B88DB089BB21A1C7B683A
:1012800008329200B968D150BD4605B090BDC04645
:1012900080B58CB000AF786039600023FB6200231A
:1012A000BB6200237B627B681B680122191C91438F
:1012B0000A1C7B681A607B685B687B627A6A474BB2
:1012C00013407B623B689B687A6A13437B627B684E
:1012D0007A6A5A607B681B687B627A6A404B13406B
:1012E0007B623B685A683B68DB681A433B681B6952
:1012F00013437A6A13437B627B687A6A1A607B685D
:101300009B687B627A6A374B13407B623B685B6900
:101310007A6A13437B627B687A6A9A603B1C083363
:10132000181CFEF7CFFE7A682F4B9A4204D13B1C63
:1013300008339B69BB6203E03B1C08339B68BB62BC
:101340007B681A6880231B02134014D0BB6A5A00C2
:101350003B681B68101C191C00F098F8031CFB620A
:10136000BB6A5A003B681B68101C191C00F0D2F8BD
:101370000B1C7B6210E03B681B68B86A191C00F00C
:1013800085F8031CFB623B681B68BA6A101C191CB9
:1013900000F0C0F80B1C7B623B681B685A087B6A34
:1013A0009A4202D8FB6A0133FB627B681A68802389
:1013B0001B0213400AD0FA6A0F2313405B087B62BA
:1013C000FA6A0A4B1A407B6A1343FB62FB6A9AB2C1
:1013D0007B689A81BD460CB080BDC046FFCFFFFF41
:1013E000F3E9FFFFFFFCFFFF00380140F0FF0000C2
:1013F00080B582B000AF78600A1CFB1C1A70FB1C21
:101400001B78002B06D07B681B6801221A437B687F
:101410001A6007E07B681B680122191C91430A1CB3
:101420007B681A60BD4602B080BDC04680B582B000
:1014300000AF78600A1CBB1C1A80BB1C1B88DB0534
:10144000DB0D9AB27B681A85BD4602B080BDC046EE
:1014500080B584B000AF786039603B1C0F33002248
:101460001A707B68DB693A68134004D03B1C0F3369
:1014700001221A7003E03B1C0F3300221A703B1C40
:101480000F331B78181CBD4604B080BD002934D032
:101490000123002210B488422CD301242407A14246
:1014A00004D2814202D209011B01F8E7E400A14203
:1014B00004D2814202D249005B00F8E7884201D39E
:1014C000401A1A434C08A04202D3001B5C08224376
:1014D0008C08A04202D3001B9C082243CC08A042E7
:1014E00002D3001BDC082243002803D01B0901D0D3
:1014F0000909E3E7101C10BC7047002801D0002048
:10150000C04307B4024802A14018029003BDC04680
:10151000190000000029F0D003B5FFF7B9FF0EBC99
:101520004243891A1847C0467047C046646F6E65CB
:10153000210A0D00A40A0008FE0A0008FE0A00089D
:10154000FE0A0008FE0A0008FE0A0008FE0A00085B
:10155000FE0A0008FE0A0008FE0A0008FE0A00084B
:10156000E40A00083C0A0008FE0A0008FE0A000817
:10157000FE0A0008FE0A00083C0A0008FE0A0008ED
:10158000FE0A0008FE0A0008FE0A0008FE0A00081B
:10159000FE0A0008FE0A0008FE0A0008FE0A00080B
:1015A000CC0A0008FE0A00085C0A0008FE0A0008CF
:1015B000FE0A00087C0A0008737464696F2E633A9F
:1015C00020696E637265617365204D41585F5354A5
:0C15D00052494E475F53495A450A0D002E
:1015DC0000000000010203040102030406070809CD
:1015EC0000000000000000000100000000000000EE
:1015FC0000000000000000000000000000000000DF
:10160C0000000000000000000000000000000000CE
:10161C0000000000000000000000000000000000BE
:10162C0000000000000000000000000000000000AE
:101A0C00000000000000000010000020000000009A
:0400000508000000EF
:00000001FF
