:020000040800F2
:1000000000100020C90500081506000815060008A4
:1000100000000000000000000000000000000000E0
:1000200000000000000000000000000015060008AD
:100030000000000000000000150600080903000889
:100040001506000815060008150600081506000824
:100050001506000815060008150600081506000814
:100060001506000815060008150600081506000804
:1000700015060008150600081506000815060008F4
:100080001506000815060008000000001506000807
:1000900015060008150600081506000815060008D4
:1000A00015060008150600081506000815060008C4
:1000B00015060008000000001506000800000000FA
:1000C0005FF808F180B588B000AF78600023FB616D
:1000D0000023BB6100237B6100233B610023FB60A5
:1000E000654B5A680C231340FB61FB69042B07D056
:1000F000082B09D0002B30D17B68604A1A6030E0B1
:100100007B685E4A1A602CE05B4B5A68F0239B03C5
:100110001340BB61584B5A6880235B0213407B61DC
:10012000BB699B0C0233BB617B69002B05D1BB69AA
:10013000534A5A437B681A6013E04F4BDA6A0F2325
:10014000134001333B614D48396901F001FC031C48
:10015000BA695A437B681A6003E07B68474A1A60B1
:10016000C046454B5A68F0231340FB61FB691B09ED
:10017000FB61444AFB69D3181B78DBB2FB607B68E8
:100180001A68FB68DA407B685A603B4B5A68E02388
:10019000DB001340FB61FB691B0AFB61394AFB6909
:1001A000D3181B78DBB2FB607B685A68FB68DA40C7
:1001B0007B689A60304B1A6B80235B00134003D13D
:1001C0007B68314ADA6010E02B4B5A688023DB01F0
:1001D000134005D17B689B685A087B68DA6004E0AD
:1001E0007B689B689A087B68DA60234B1A6B402314
:1001F000134003D17B68254A1A6103E07B688022A3
:1002000012021A611C4B1A6B1023134003D17B6836
:100210001A4A5A6103E07B681A687B685A61164B78
:100220001A6B0323134004D17B689A687B689A6138
:100230001EE0114B1A6B03231340012B04D17B6882
:100240001A687B689A6113E00B4B1A6B0323134007
:10025000022B04D17B68802212029A6108E0064BCF
:100260001A6B03231340032B02D17B68034A9A6164
:10027000BD4608B080BDC0460010024000127A00A2
:1002800000093D0000000020809FD5001280000082
:1002900080B582B000AF78600A1CFB1C1A70FB1C92
:1002A0001B78002B06D0084B074A51697A680A432D
:1002B0005A6106E0044B044A52697968C9430A400E
:1002C0005A61BD4602B080BD0010024080B582B0C8
:1002D00000AF78600A1CFB1C1A70FB1C1B78002BFB
:1002E00006D0084B074A91697A680A439A6106E08A
:1002F000044B044A92697968C9430A409A61BD4631
:1003000002B080BD0010024080B500AF054B1B88D5
:10031000002B05D0034B1B88013B9AB2014B1A807E
:10032000BD4680BD5404002080B582B000AF021CE1
:10033000BB1D1A80054BBA1D12881A80C046034B9C
:100340001B88002BFBD1BD4602B080BD54040020A9
:1003500080B500AF80239B02181C0121FFF798FF96
:100360008023DB02181C0121FFF792FF80235B0131
:10037000181C0121FFF7AAFF8023DB01181C0121B3
:10038000FFF7A4FFBD4680BDB0B582B000AF021C30
:100390003960FB1D1A70FB1D1B787F2B32D9304949
:1003A000FB1D1B781A1C0F231340083B98082C4A8E
:1003B000FB1D1B781C1C0F232340083B9B080633A6
:1003C0009B00D3185B68FA1D1278141C032222408C
:1003D000D200FF24251C95402A1CD2431A403B68BA
:1003E0009C01FF231C40FB1D1B781D1C03232B407D
:1003F000DB00251C9D402B1C1A43831D9B00CB1842
:100400005A6029E0174BFA1D127852B2920815492A
:10041000F81D007840B28008C03080004158F81DB7
:100420000078041C03202040C000FF24251C8540C8
:10043000281CC043084039688C01FF210C40F91D7D
:1004400009780D1C03212940C900251C8D40291C59
:100450000143C0329200D150BD4602B0B0BDC0468B
:1004600000ED00E000E100E080B582B000AF786010
:100470007A680E4B9A4201D9012312E00C4B7A683C
:100480001202120A013A5A6001235B42181C03212E
:10049000FFF77AFF064B00229A60054B07221A608D
:1004A0000023181CBD4602B080BDC046FFFFFF0000
:1004B00010E000E080B588B000AF3B1CE1221203E1
:1004C0001A603B1C00225A603B1C802292019A60F9
:1004D0003B1C0022DA603B1C00225A613B1C0C22B0
:1004E0001A619023DB05181C0921012201F09EF8F6
:1004F0009023DB05181C0A21012201F097F83B1C10
:100500001833C022D2001A603B1C183302221A7121
:100510003B1C183303225A713B1C183300229A717A
:100520003B1C18330122DA719023DA053B1C183387
:10053000101C191C00F0DEFF064A3B1C101C191C85
:1005400001F0C2F8034B181C012101F06DF9BD4602
:1005500008B080BD0038014080B500AF164B1B6865
:10056000181CFA23990001F0F3F9031C181CFFF77B
:100570007BFFFFF7EDFEFFF79DFF00F0B7FB01F0FB
:10058000A1F901F0C3F900F005FD0C4B181C002186
:10059000002200F027FD0A4B181C0021032200F066
:1005A00021FD6420FFF7C0FE064B181C00F040FB45
:1005B00001F0BCF9F5E7C04640040020F01900083E
:1005C000F8190008001A00080C488546002103E0CD
:1005D0000B4B5B58435004310A480B4B42189A426C
:1005E000F6D30A4A02E0002313600432084B9A4211
:1005F000F9D300F0C9FEFFF7AFFFFEE700100020BF
:10060000F01F0008000000205404002054040020C3
:1006100058040020FEE7000080B582B000AF021C45
:10062000FB1D1A70FB1D1B789BB2084A101C191C7D
:1006300001F018F9C046054B181C802101F024F97F
:10064000031C002BF7D0BD4602B080BD003801402E
:1006500080B582B000AF78600A1CFB1C1A707B6802
:10066000FA1C12781A700123181CBD4602B080BD16
:1006700080B584B000AF786039600023FB600CE087
:100680003B681A787B681A707B6801337B603B6833
:1006900001333B60FB680133FB603B681B78002B38
:1006A000EED1FB68181CBD4604B080BD80B586B095
:1006B00000AFF8607A603B603B1C0B330A1C1A7079
:1006C00000237B617B68013B7B603B68092B24D95D
:1006D0003B68181C0A2101F03BF9031CF8683A1C1E
:1006E0000B3211787A68FFF7E1FF031C7B617B69AD
:1006F000FA68D318FB6013E0FA683B1C0B331B78D5
:10070000101C191CFFF7A4FFFB680133FB607B6919
:1007100001337B617B68013B7B607B68002BEBDCFA
:100720003B68181C0A2101F057F90B1CDBB230336F
:10073000DBB2FA68101C191CFFF78AFF031C7A69E8
:10074000D3187B617B69181CBD4606B080BDC046CE
:1007500080B586B000AFF8607A603B603B1C0B331D
:100760000A1C1A7000237B613B68002B03DA3B688C
:100770005B423B6101E03B683B617B68013B7B6026
:100780003B69092B27D93B68002B10DA3B69181C01
:100790000A2101F0DDF8031C5B42F8683A1C0B32B9
:1007A00011787A68FFF7D4FF031C7B610EE03B6988
:1007B000181C0A2101F0CCF8031CF8683A1C0B3213
:1007C00011787A68FFF7C4FF031C7B617B69FA68C4
:1007D000D318FB6029E03B68002B14DA7B68013BEF
:1007E0007B6010E0FA683B1C0B331B78101C191C53
:1007F000FFF72EFFFB680133FB607B6901337B61F0
:100800007B68013B7B607B68002BEBDC3B68002B4B
:100810000BDAFB68181C2D21FFF71AFF031C7A69FD
:10082000D3187B61FB680133FB603B69181C0A210C
:1008300001F0D2F80B1CDBB23033DBB2FA68101CCB
:10084000191CFFF705FF031C7A69D3187B617B69CC
:10085000181CBD4606B080BD90B589B002AFF860E7
:100860007A601A1C3B1C0B3319703B1C0A331A703C
:1008700000237B617B68013B7B60BB6A1B0926D040
:10088000BB6A1C09F8683B1C0B3319787A683B1C5F
:100890000A331B780094FFF7DFFF031C7A69D31833
:1008A0007B617B69FA68D318FB6013E0FA683B1C34
:1008B0000B331B78101C191CFFF7CAFEFB680133B1
:1008C000FB607B6901337B617B68013B7B607B68FC
:1008D000002BEBDCBA6A0F231340092B0CD8BB6A40
:1008E000DAB20F231340DBB23033DBB2FA68101CEC
:1008F000191CFFF7ADFE1DE03B1C0A331B78002BD3
:100900000CD0BB6ADAB20F231340DBB23733DBB251
:10091000FA68101C191CFFF79BFE0BE0BB6ADAB2E9
:100920000F231340DBB25733DBB2FA68101C191CDB
:10093000FFF78EFE7B6901337B617B69181CBD4626
:1009400007B090BD80B58AB002AFF860B9607A6038
:100950003B600023BB6100237B61FB68002B00D15F
:10096000E6E0FB6800221A70E2E07B681B78252B2A
:100970000DD07B681A78FB681A70FB680133FB6046
:100980007B6801337B607B6901337B61D1E07B68ED
:1009900001331B78252B0CD1FB6825221A70FB68CC
:1009A0000133FB607B6802337B607B6901337B61D1
:1009B000BFE03B1C1F3320221A703B1C1E33002259
:1009C0001A707B6801337B607B681B78302B1BD1EE
:1009D0003B1C1F3330221A707B6801337B6013E0AD
:1009E0003B1C1E331B781A1C9200D3185B00DAB232
:1009F0007B681B78D318DAB23B1C1E33303A1A706E
:100A00007B6801337B6000E0C0467B681B782F2B3E
:100A100003D97B681B78392BE2D93B1C1E331A782B
:100A20007B69D3181A1CBB689A4207D9BB68D9B234
:100A30007B69DAB23B1C1E338A1A1A707B681B78FA
:100A4000583B202B65D89A00494BD3181B689F460A
:100A50003B1C1E331A783B68191D39601B68F86807
:100A6000391C1F310978FFF773FE031CBB6153E08B
:100A70003B1C1E331A783B68191D39601B68F868E7
:100A8000391C1F310978FFF711FE031CBB6143E0DD
:100A90003B1C1E331A783B68191D39601868F968C9
:100AA0003B1C1F331B780090081C191C0023FFF708
:100AB000D3FE031CBB612FE03B1C1E331A783B683E
:100AC000191D39601868F9683B1C1F331B780090AA
:100AD000081C191C0123FFF7BFFE031CBB611BE0B0
:100AE0003B681A1D3A601B68FA68101C191CFFF756
:100AF000BFFD031CBB610FE03B681A1D3A601B6819
:100B0000DBB2FA68101C191CFFF7A2FD031CBB61C5
:100B100002E001235B4227E07B6801337B60BB6915
:100B2000FA68D318FB607A69BB69D3187B6100E06F
:100B3000C0467B681B78002B04D07A69BB689A4258
:100B400000D212E77A69BB689A4203D2FB6800229E
:100B50001A7008E0FB68013BFB60FB6800221A701A
:100B60007B69013B7B617B69181CBD4608B080BD79
:100B70003C1F000880B584B000AFF860B9607A60AF
:100B8000F968BA687B68081C6421FFF7DBFE031C68
:100B9000181CBD4604B080BD90B5A7B000AFF8608A
:100BA000B9607A603B1C1033144A13CA13C313CACA
:100BB00013C313CA13C3391C3431BA687B68081CC9
:100BC000111C1A1CFFF7D6FF031C632B09DD0C4B0D
:100BD0001B68DB683A1C1032101C191C00F060F80E
:100BE000FEE73A1C3432FB68101C191C00F058F860
:100BF000031C181CBD4627B090BDC046C01F00088E
:100C00003804002080B582B000AF78603960074BAF
:100C10001B6899687A683B68081C111C1A1CFFF74E
:100C2000BBFF031C181CBD4602B080BD3804002069
:100C30000FB480B582B000AF3B1C14333B603A69FF
:100C40003B68101C191CFFF7DDFF031C7B607B68F1
:100C5000181CBD4602B080BC08BC04B01847C04692
:100C600080B582B000AF786039600C4B1B689A6821
:100C70003B689A4205D0094B1B68DA683B689A4288
:100C800006D17B68DBB2181CFFF7C6FC7B6801E06D
:100C900001235B42181CBD4602B080BD3804002011
:100CA00080B584B000AF786039600023FB6013E04A
:100CB0007B681B781A1C3B68101C191CFFF7D0FFBF
:100CC000031C013302D101235B420AE0FB680133BC
:100CD000FB607B6801337B607B681B78002BE7D16E
:100CE000FB68181CBD4604B080BDC04680B588B006
:100CF00000AF3B1D04221A603B1D01221A713B1DEF
:100D000003225A713B1D00229A713B1D0122DA71A8
:100D10009023DA053B1D101C191C00F0EBFB3B1D5A
:100D2000E0221A603B1D02221A713B1D03225A71F8
:100D30003B1D00229A713B1D0122DA719023DA05D6
:100D40003B1D101C191C00F0D5FB9023DB05181C63
:100D50002021002200F06AFC9023DB05181C4021B2
:100D6000002200F063FC9023DB05181C8021002288
:100D700000F05CFC3B1C0C3300221A803B1C0C3343
:100D8000822252005A803B1C0C33E022D2009A800F
:100D90003B1C0C330022DA803B1C0C3300221A81EE
:100DA0003B1C0C33802292005A813B1C0C333822AE
:100DB0009A813B1C0C330022DA813B1C0C33072246
:100DC0001A82294A3B1C0C33101C191C00F0AEF986
:100DD000254A80235B01101C191C00F049FA224BA4
:100DE000181C002100F08AFA1F4B181C012100F08A
:100DF0001FFAC0461C4B181C022100F0A1FA031C6C
:100E0000002BF7D03B1D03221A603B1D01221A71F3
:100E10003B1D03225A713B1D00229A713B1D01228A
:100E2000DA71124A3B1D101C191C00F063FB00F024
:100E300081F8002000F05AF8212000F057F8BF2078
:100E400000F054F8042000F051F8142000F04EF89F
:100E50000D2000F04BF8222000F048F80C2000F0A4
:100E600045F8BD4608B080BD003001400004004890
:100E700080B582B000AF021CFB1D1A709023DB0509
:100E800004221A850D4AFB1D1B78101C191C00F04A
:100E90000DFAC046094B181C012100F051FA031C41
:100EA000002BF7D0054B181C00F016FA9023DB0539
:100EB00004229A61BD4602B080BDC04600300140A8
:100EC00080B582B000AF021CFB1D1A70FB1D1B78A1
:100ED000002B03D0044B02229A6102E0024B022253
:100EE0001A85BD4602B080BD0004004880B582B0BE
:100EF00000AF021CFB1D1A700020FFF7E1FFFB1D75
:100F00001B78181CFFF7B4FFBD4602B080BDC04679
:100F100080B582B000AF021CFB1D1A700120FFF7E4
:100F2000CFFFFB1D1B78181CFFF7A2FFBD4602B0C8
:100F300080BDC04680B500AF064B01221A85012056
:100F4000FFF7F2F9034B01229A610120FFF7ECF958
:100F5000BD4680BD0004004880B582B000AF0A1CC9
:100F6000FB1D011C1970BB1D1A70FB1D1B78802214
:100F700052421343DBB2181CFFF7B8FFBB1D1B78AE
:100F800040221343DBB2181CFFF7B0FFBD4602B08E
:100F900080BDC04680B582B000AF00200021FFF7C1
:100FA000DBFFFB1D00221A7014E0BB1D00221A702B
:100FB00007E00020FFF7ACFFBB1DBA1D127801321D
:100FC0001A70BB1D1B78532BF3D9FB1DFA1D127829
:100FD00001321A70FB1D1B78052BE6D9BD4602B005
:100FE00080BDC04680B582B000AF7860FB1C197030
:100FF000BB1C1A7016E07B681978FB1C1A78BB1CA6
:101000001B78081C111C1A1C00F014F8031C1A1C75
:10101000FB1C1B78D318DAB2FB1C01321A707B68F8
:1010200001337B607B681B78002BE4D1BD4602B0A6
:1010300080BDC04680B586B000AFFB1D1870BB1DDB
:1010400019707B1D1A703B1C0F33FA1D1278303A51
:101050001A70BB1D1A787B1D1B78101C191CFFF71A
:101060007BFF304B9A682F4B59683B1C0F331B7822
:101070009B00CB185B88D3183B613B1C16330022C6
:101080001A7035E0BA1D3B1C163312781B78D31842
:10109000DAB27B1D1B78101C191CFFF75DFF3B1C8F
:1010A000173300221A7015E03B691B781E4A101C8A
:1010B000191CFFF7BDFD3B691B78181CFFF728FFC3
:1010C0003B6901333B613B1C17333A1C17321278E2
:1010D00001321A70134B1B783A1C173212789A425D
:1010E000E2D33B1C16333A1C1632127801321A70C6
:1010F0000C4B5A683B1C0F331B789B00D3181B7892
:101100003A1C163212789A42BCD3064B5A683B1CE2
:101110000F331B789B00D3181B78181CBD4606B0F4
:1011200080BDC046301F0008E41F000880B584B0B1
:1011300000AF786039603B1C0E3300221A803B1CE4
:101140000E337A6812881A803B1C0E333A1C0E321A
:101150001188C12292010A401A803B681A883B68B4
:10116000DB8913439AB23B68DB8813439AB23B682E
:101170001B8913439AB23B685B8913439AB23B685D
:101180009B89134399B23B1C0E333A1C0E321288D2
:101190000A431A807B683A1C0E3212881A803B1C64
:1011A0000E337A6892881A803B1C0E333A1C0E323A
:1011B00011881D4A0A401A803B6899883B1C0E33EF
:1011C0003A1C0E3212880A431A807B683A1C0E328F
:1011D00012889A803B681A8A7B681A823B1C0E33FD
:1011E0007A6812881A803B1C0E333A1C0E32128821
:1011F00004218A431A803B6859883B1C0E333A1CF1
:101200000E3212880A431A807B683A1C0E3212880A
:101210001A807B689B8B9AB2044B13409AB27B680E
:101220009A83BD4604B080BDFFF0FFFFFFF7FFFFCC
:1012300080B582B000AF78600A1CFB1C1A70FB1CE2
:101240001B78002B08D07B681B889BB2402213437D
:101250009AB27B681A8007E07B681B889BB24022A9
:1012600093439AB27B681A80BD4602B080BDC046E7
:1012700080B582B000AF78600A1CBB1C1A807B6806
:101280009B889AB2084B13409AB27B689A807B681D
:101290009B889AB2BB1C1B8813439AB27B689A80C6
:1012A000BD4602B080BDC046FFEFFFFF80B584B0F1
:1012B00000AF78600A1CFB1C1A700023FB607B687F
:1012C000FB60FB680C33FB60FB68FA1C12781A7039
:1012D000BD4604B080BDC04680B584B000AF786024
:1012E0000023FB607B68FB60FB680C33FB60FB68E2
:1012F0001B78DBB2181CBD4604B080BD80B582B03F
:1013000000AF78600A1CFB1C1A70FB1C1B78002BBA
:1013100009D07B681B889BB28022920113439AB24A
:101320007B681A8007E07B681B889AB2034B1340E6
:101330009AB27B681A80BD4602B080BDFFDFFFFF16
:1013400080B584B000AF78600A1CBB1C1A803B1CBF
:101350000F3300221A707B681B899BB2BA1C12885B
:1013600013409BB2002B04D03B1C0F3301221A7098
:1013700003E03B1C0F3300221A703B1C0F331B7819
:10138000181CBD4604B080BD80B500AF1B4B1B4A86
:10139000126801210A431A60184B184A5168184A0A
:1013A0000A405A60154B154A1168164A0A401A60DD
:1013B000124B124A1168144A0A401A600F4B0F4A26
:1013C0005168124A0A405A600C4B0C4AD26A0F21EB
:1013D0008A43DA62094B094A116B0D4A0A401A63C3
:1013E000064B064A526B01218A435A63034B002283
:1013F0009A6000F00FF8BD4680BDC0460010024064
:101400000CB8FF08FFFFF6FEFFFFFBFFFFFFC0FF6A
:10141000ACFEFFFF80B582B000AF00237B600023ED
:101420003B60314B304A1268802149020A431A60FE
:101430002D4B1A6880239B0213403B607B6801336D
:101440007B603B68002B04D17A68A023DB019A42C1
:10145000EED1254B1A6880239B02134002D0012352
:101460003B6001E000233B603B68012B38D11F4B00
:1014700011221A601C4B1C4A52685A601A4B1A4AB5
:1014800052685A60184B184A5168194A0A405A6003
:10149000154B154A5268882149030A435A60124B7A
:1014A000114A1268802149040A431A60C0460E4B53
:1014B0001A6880239B041340F9D00B4B0A4A5268E8
:1014C00003218A435A60084B074A526802210A43A3
:1014D0005A60C046044B5A680C231340082BF9D1BC
:1014E000BD4602B080BDC046001002400020024050
:1014F000FFFFC0FF80B586B000AF78603960002381
:101500007B6100233B610023FB6000237B6185E05E
:101510007B690122101C9840031C3B613B681B68DF
:101520003A691340FB60FA683B699A4273D13B68A1
:101530001B79012B03D03B681B79022B38D17B68C8
:101540009B687A6952000321081C9040021CD24318
:101550001A407B689A607B689A683B685B79191CC3
:101560007B695B00081C9840031C1A437B689A60E7
:101570007B689B889BB27A6992B20121081C9040DB
:10158000021C92B2D24392B213409AB27B689A8004
:101590007B689B889AB23B689B79191C7B699BB2DC
:1015A000081C9840031C9BB213439AB27B689A8034
:1015B0007B681B687A6952000321081C9040021C5A
:1015C000D2431A407B681A607B681A683B681B79B3
:1015D000191C7B695B00081C9840031C1A437B683C
:1015E0001A607B68DB687A6992B252000321081C9A
:1015F0009040021CD2431A407B68DA607B68DA684C
:101600003B68DB79191C7B695B00081C9840031C54
:101610001A437B68DA607B6901337B617B690F2B3E
:1016200000D875E7BD4606B080BDC04690B585B010
:1016300000AF7860BB1C19807B1C1A700023FB6014
:101640000023BB607B1C1A78BB1C198807230B4046
:101650009B00111C99400B1CFB60BB1C1B88DB080A
:101660009BB21A1CBB1C1B88DB089BB2191C7B6835
:1016700008318900CB58B91C08880721014089002E
:101680000F20041C8C40211CC94319407B68083280
:101690009200D150BB1C1B88DB089BB21A1C7B68D4
:1016A00008329200D258FB681343BB60BB1C1B88F6
:1016B000DB089BB21A1C7B6808329200B968D150D3
:1016C000BD4605B090BDC04680B58CB000AF786017
:1016D00039600023FB620023BB6200237B627B68CE
:1016E0001B680122191C91430A1C7B681A607B68E5
:1016F0005B687B627A6A474B13407B623B689B68FE
:101700007A6A13437B627B687A6A5A607B681B68DB
:101710007B627A6A404B13407B623B685A683B6845
:10172000DB681A433B681B6913437A6A13437B6285
:101730007B687A6A1A607B689B687B627A6A374B3F
:1017400013407B623B685B697A6A13437B627B6808
:101750007A6A9A603B1C0833181CFEF7B3FC7A685F
:101760002F4B9A4204D13B1C08339B69BB6203E0B8
:101770003B1C08339B68BB627B681A6880231B0292
:10178000134014D0BB6A5A003B681B68101C191C1C
:1017900000F0DEF8031CFB62BB6A5A003B681B6862
:1017A000101C191C00F018F90B1C7B6210E03B6840
:1017B0001B68B86A191C00F0CBF8031CFB623B687D
:1017C0001B68BA6A101C191C00F006F90B1C7B621E
:1017D0003B681B685A087B6A9A4202D8FB6A01334D
:1017E000FB627B681A6880231B0213400AD0FA6AE6
:1017F0000F2313405B087B62FA6A0A4B1A407B6A2C
:101800001343FB62FB6A9AB27B689A81BD460CB0B7
:1018100080BDC046FFCFFFFFF3E9FFFFFFFCFFFFE6
:1018200000380140F0FF000080B582B000AF786062
:101830000A1CFB1C1A70FB1C1B78002B06D07B6853
:101840001B6801221A437B681A6007E07B681B68EB
:101850000122191C91430A1C7B681A60BD4602B024
:1018600080BDC04680B582B000AF78600A1CBB1C4A
:101870001A80BB1C1B88DB05DB0D9AB27B681A85BE
:10188000BD4602B080BDC04680B584B000AF786070
:1018900039603B1C0F3300221A707B68DB693A68A1
:1018A000134004D03B1C0F3301221A7003E03B1C91
:1018B0000F3300221A703B1C0F331B78181CBD46D7
:1018C00004B080BD80B582B000AF80239B02181C9D
:1018D0000121FEF7DDFC3B1C08221A603B1C0122A3
:1018E0001A713B1C03225A713B1C00229A713B1C4B
:1018F0000122DA719023DA053B1C101C191CFFF73A
:10190000F9FD00F00BF8BD4602B080BD80B500AF18
:101910009023DB0508229A61BD4680BD80B500AFEB
:101920009023DB0508221A85BD4680BD80B500AF37
:101930009023DB059B8A9BB21A1C0823134002D01C
:10194000FFF7ECFF01E0FFF7E1FFBD4680BDC046B9
:10195000002934D00123002210B488422CD3012462
:101960002407A14204D2814202D209011B01F8E7F7
:10197000E400A14204D2814202D249005B00F8E7B0
:10198000884201D3401A1A434C08A04202D3001BDC
:101990005C0822438C08A04202D3001B9C0822430F
:1019A000CC08A04202D3001BDC082243002803D04D
:1019B0001B0901D00909E3E7101C10BC704700287F
:1019C00001D00020C04307B4024802A14018029091
:1019D00003BDC046190000000029F0D003B5FFF791
:1019E000B9FF0EBC4243891A1847C0467047C0462B
:1019F00061626364656667003635343332313000C6
:101A0000646F6E65210A0D00C01F00F0FF003CE00E
:101A1000010C800106000306000306000306000314
:101A20000E80011CE001F8FF00E01F0030000318E9
:101A30000003FEFF03FEFF0300000300000318E0A5
:101A4000031CF0030C38030E1C03060E03060603EA
:101A50000607038E0303FC010378000300C0000C9B
:101A6000C0010C80010E0003060103060303860378
:101A700003860303CC8601FCFE00787C000018007E
:101A8000001C00001F00801F00E01900F818003C37
:101A900018000F1800FFFF03FFFF030018000018D5
:101AA00000001800E6C700FEC701BE8303860103DD
:101AB000C60003C60003C60003C68001C6C1018676
:101AC000FF00003E00007F00C0FF00E0C301B081C6
:101AD000039801038C01038E010386810300C30177
:101AE00000FF00007C000600000600000600020661
:101AF000C00306F001067E00861F00C60700F6013F
:101B0000003E00001E00000E0000060000F0F8007D
:101B1000F8FD018C8F018607030603030603030605
:101B200003038607038E8F01FCFF01F8F800F00124
:101B300000F803061C07060E0E07060C03068C03AE
:101B4000068C0106CC010EF6001C7E00F81F00F08A
:101B5000070000FC0000FF01808303800103C00038
:101B600003C00003C08003C0FF0180FF0300000327
:101B7000FFFF03FFFF03808103C00103C00003C018
:101B80000003C00003C0810380C30100FF00003ECA
:101B90000000780000FE01808701800103C000037F
:101BA000C00003C00003C0000380810180810100E8
:101BB0007C0000FF0080C301C08103C00003C0009F
:101BC00003C00003C00003808101FFFF03FFFF0388
:101BD000007C0000FF0180B301C09903C01803C05E
:101BE0000C03C00C03C00E0380870180C30100C03A
:101BF00000C00000C00000C00000F8FF07FEFF07A3
:101C0000CF0000C30000C30000C30000007C400000
:101C1000FFC18083C38001C3C000C3C000C3C080B4
:101C2000E1C0E07880FF3F80FF07FFFF03FFFF0375
:101C3000000700800100C00000C00000C00000C01C
:101C4000FF0380FF03C6FF03C6FF03000030000050
:101C5000F00000C0000080000080CCFFFFCCFF7FC0
:101C6000FEFF03FEFF03003800001C00003E0000E2
:101C70007F0000E70080C301C08103800001FFFFF7
:101C800003FFFF03C0FF03C0FF0300070080030042
:101C9000800100C00000C00000C0FF0300FF0380FF
:101CA0000100C00100C00000C00000C0FF0380FFB1
:101CB00003C0FF03C0FF03000F00800300C001004A
:101CC000C00000C00000C0FF0300FF03007C000054
:101CD000FF01808301C00103C00003C00003C08076
:101CE00003C0C10180FF00007E00E0FFFFE0FFFFB6
:101CF000800103C00003C00003C00003C081018055
:101D0000FF01007E00C0FF03C0FF0300030080014D
:101D100000C00100C00000C00000C0070080070034
:101D2000008E01008F03801F038019038019038038
:101D30001803C03803C0F301C0E300C00000C000B6
:101D400000C00000C00000FCFF03FCFF03C0000057
:101D5000C00000C00000C00000C0FF01C0FF0300C1
:101D60000003000003000003000003000001C0FFA7
:101D700003C0FF03C00300C07F0000FC030080031A
:101D800000F001003F00C00700C00F00007E00000F
:101D9000F00300800300FC03C07F00C00300C0000C
:101DA00003C0810380C30100E700007E00003C0007
:101DB000003C00007E0000E70080C301C08103C03A
:101DC0000003C00100C00700000FC0003CF000F09D
:101DD0003C00C00F00E001007800001E00800700FA
:101DE000C00100C00000C00003C08003C0C003C029
:101DF000E003C07803C01C03C00F03C00703C00189
:101E000003C000030C000000060024000A00360096
:101E10000B0054000D0075000B009C000B00BD0072
:101E20000D00DE000B0005010C0026010000000083
:101E300000000000000000000000000000000000A2
:101E40000000000000000000000000000000000092
:101E50000000000000000000000000000000000082
:101E60000000000000000000000000000000000072
:101E70000000000000000000000000000000000062
:101E80000000000000000000000000000000000052
:101E90000000000000000000000000000000000042
:101EA0000000000000000000000000000000000032
:101EB0000000000000000000000000000000000022
:101EC00000000000000000000A004A010B00680149
:101ED0000A0089010B00A7010B00C8010900E901F4
:101EE0000A0004020900220202003D020700430228
:101EF0000A005802020076020F007C020900A902C3
:101F00000A00C4020900E202000000000900FD020C
:101F1000090018030A003303090051030000000000
:101F20000E006C030C0096030C00BA030A00DE03DB
:101F300003307A02041E0008081A0008B80A0008D4
:101F4000120B0008120B0008120B0008120B0008FD
:101F5000120B0008120B0008120B0008120B0008ED
:101F6000120B0008120B0008F80A0008500A0008BB
:101F7000120B0008120B0008120B0008120B0008CD
:101F8000500A0008120B0008120B0008120B000880
:101F9000120B0008120B0008120B0008120B0008AD
:101FA000120B0008120B0008E00A0008120B0008D0
:101FB000700A0008120B0008120B0008900A0008B3
:101FC000737464696F2E633A20696E63726561731E
:101FD00065204D41585F535452494E475F53495A0B
:101FE000450A0D00446174613A2025780A0D00000D
:101FF00000000000010203040102030406070809AF
:1020000000000000000000000100000000000000CF
:1020100000000000000000000000000000000000C0
:1020200000000000000000000000000000000000B0
:1020300000000000000000000000000000000000A0
:102040000000000000000000000000000000000090
:10242000000000000000000010000020000000007C
:10243000006CDC0200000000000000000102030448
:04244000060708097A
:0400000508000000EF
:00000001FF
